{
  "contractName": "BitLyfeReferral",
  "abi": [
    {
      "inputs": [],
      "stateMutability": "nonpayable",
      "type": "constructor"
    },
    {
      "anonymous": false,
      "inputs": [
        {
          "indexed": true,
          "internalType": "address",
          "name": "previousOwner",
          "type": "address"
        },
        {
          "indexed": true,
          "internalType": "address",
          "name": "newOwner",
          "type": "address"
        }
      ],
      "name": "OwnershipTransferred",
      "type": "event"
    },
    {
      "inputs": [],
      "name": "busdtContract",
      "outputs": [
        {
          "internalType": "address",
          "name": "",
          "type": "address"
        }
      ],
      "stateMutability": "view",
      "type": "function"
    },
    {
      "inputs": [],
      "name": "collateral",
      "outputs": [
        {
          "internalType": "uint256",
          "name": "",
          "type": "uint256"
        }
      ],
      "stateMutability": "view",
      "type": "function"
    },
    {
      "inputs": [],
      "name": "daiContract",
      "outputs": [
        {
          "internalType": "address",
          "name": "",
          "type": "address"
        }
      ],
      "stateMutability": "view",
      "type": "function"
    },
    {
      "inputs": [],
      "name": "fmk",
      "outputs": [
        {
          "internalType": "uint256",
          "name": "",
          "type": "uint256"
        }
      ],
      "stateMutability": "view",
      "type": "function"
    },
    {
      "inputs": [],
      "name": "fmkd",
      "outputs": [
        {
          "internalType": "uint256",
          "name": "",
          "type": "uint256"
        }
      ],
      "stateMutability": "view",
      "type": "function"
    },
    {
      "inputs": [],
      "name": "name",
      "outputs": [
        {
          "internalType": "string",
          "name": "",
          "type": "string"
        }
      ],
      "stateMutability": "view",
      "type": "function"
    },
    {
      "inputs": [],
      "name": "referral_percent1",
      "outputs": [
        {
          "internalType": "uint256",
          "name": "",
          "type": "uint256"
        }
      ],
      "stateMutability": "view",
      "type": "function"
    },
    {
      "inputs": [],
      "name": "referral_percent2",
      "outputs": [
        {
          "internalType": "uint256",
          "name": "",
          "type": "uint256"
        }
      ],
      "stateMutability": "view",
      "type": "function"
    },
    {
      "inputs": [],
      "name": "referral_percent3",
      "outputs": [
        {
          "internalType": "uint256",
          "name": "",
          "type": "uint256"
        }
      ],
      "stateMutability": "view",
      "type": "function"
    },
    {
      "inputs": [
        {
          "internalType": "address",
          "name": "_daiContract",
          "type": "address"
        }
      ],
      "name": "setDAIContract",
      "outputs": [],
      "stateMutability": "nonpayable",
      "type": "function"
    },
    {
      "inputs": [
        {
          "internalType": "address",
          "name": "_busdtContract",
          "type": "address"
        }
      ],
      "name": "setUSDTContract",
      "outputs": [],
      "stateMutability": "nonpayable",
      "type": "function"
    },
    {
      "inputs": [
        {
          "internalType": "address",
          "name": "newOwner",
          "type": "address"
        }
      ],
      "name": "transferOwnership",
      "outputs": [],
      "stateMutability": "nonpayable",
      "type": "function"
    },
    {
      "stateMutability": "payable",
      "type": "receive"
    },
    {
      "inputs": [
        {
          "internalType": "address",
          "name": "_sender",
          "type": "address"
        }
      ],
      "name": "balanceOf",
      "outputs": [
        {
          "internalType": "uint256",
          "name": "balance",
          "type": "uint256"
        }
      ],
      "stateMutability": "view",
      "type": "function"
    },
    {
      "inputs": [
        {
          "internalType": "address",
          "name": "_issuer",
          "type": "address"
        },
        {
          "internalType": "address",
          "name": "_partner",
          "type": "address"
        },
        {
          "internalType": "uint256",
          "name": "_tokens_to_issue",
          "type": "uint256"
        },
        {
          "internalType": "uint256",
          "name": "_issue_price",
          "type": "uint256"
        },
        {
          "internalType": "uint256",
          "name": "_asset_amount",
          "type": "uint256"
        }
      ],
      "name": "onIssueTokens",
      "outputs": [
        {
          "internalType": "uint256",
          "name": "",
          "type": "uint256"
        }
      ],
      "stateMutability": "nonpayable",
      "type": "function"
    },
    {
      "inputs": [
        {
          "internalType": "uint256",
          "name": "_referral_percent1",
          "type": "uint256"
        },
        {
          "internalType": "uint256",
          "name": "_referral_percent2",
          "type": "uint256"
        },
        {
          "internalType": "uint256",
          "name": "_referral_percent3",
          "type": "uint256"
        }
      ],
      "name": "setReferralPercent",
      "outputs": [],
      "stateMutability": "nonpayable",
      "type": "function"
    },
    {
      "inputs": [
        {
          "internalType": "address",
          "name": "_token_address",
          "type": "address"
        }
      ],
      "name": "setTokenAddress",
      "outputs": [],
      "stateMutability": "nonpayable",
      "type": "function"
    },
    {
      "inputs": [
        {
          "internalType": "address",
          "name": "_contract",
          "type": "address"
        }
      ],
      "name": "transferWronglySentERC20FromContract",
      "outputs": [],
      "stateMutability": "nonpayable",
      "type": "function"
    }
  ],
  "bytecode": "0x60806040523480156200001157600080fd5b506040805180820190915260188082527f4269744c79666520506172746e6572732050726f6772616d000000000000000060209092019182526200005891600491620000e4565b50600080546001600160a01b03199081163317909155621e84806005556216e3606006556207a120600755600380548216734a9826a545ea79a281907e732b15d24b485a1b341790556001805482167355d398326f99059ff775485246999027b319795517905560028054909116731af3f329e8be154074d8769d1ffa4ee058b1dbc317905562000189565b828054600181600116156101000203166002900490600052602060002090601f016020900481019282601f106200012757805160ff191683800117855562000157565b8280016001018555821562000157579182015b82811115620001575782518255916020019190600101906200013a565b506200016592915062000169565b5090565b6200018691905b8082111562000165576000815560010162000170565b90565b6119ce80620001996000396000f3fe6080604052600436106101125760003560e01c806370a08231116100a5578063db4563d311610074578063eaac40f311610059578063eaac40f314610522578063f2fde38b14610562578063f3778156146105a257610233565b8063db4563d3146104f8578063e30178261461050d57610233565b806370a082311461044e5780637d1b0acd1461048e578063805034fd146104ce578063d8dfeb45146104e357610233565b80632ce8b913116100e15780632ce8b9131461035f57806340f4afd11461039d5780634d4c7d3f146103dd5780636e92e9d2146103f257610233565b806305e28e2e1461023857806306fdde031461025f578063082af41e146102e957806326a4e8d21461031f57610233565b366102335760405133903480156108fc02916000818181858888f19350505050158015610143573d6000803e3d6000fd5b5033600090815260096020526040902054156102315733600090815260096020526040902054600154819061018d9073ffffffffffffffffffffffffffffffffffffffff166105b7565b11156101ce576001546101b89073ffffffffffffffffffffffffffffffffffffffff16303384610687565b503360009081526009602052604081205561022f565b60025481906101f29073ffffffffffffffffffffffffffffffffffffffff166105b7565b111561022f5760025461021d9073ffffffffffffffffffffffffffffffffffffffff16303384610687565b50336000908152600960205260408120555b505b005b600080fd5b34801561024457600080fd5b5061024d610741565b60408051918252519081900360200190f35b34801561026b57600080fd5b50610274610747565b6040805160208082528351818301528351919283929083019185019080838360005b838110156102ae578181015183820152602001610296565b50505050905090810190601f1680156102db5780820380516001836020036101000a031916815260200191505b509250505060405180910390f35b3480156102f557600080fd5b506102316004803603606081101561030c57600080fd5b50803590602081013590604001356107f3565b34801561032b57600080fd5b506102316004803603602081101561034257600080fd5b503573ffffffffffffffffffffffffffffffffffffffff1661088f565b34801561036b57600080fd5b50610374610964565b6040805173ffffffffffffffffffffffffffffffffffffffff9092168252519081900360200190f35b3480156103a957600080fd5b50610231600480360360208110156103c057600080fd5b503573ffffffffffffffffffffffffffffffffffffffff16610980565b3480156103e957600080fd5b5061024d610c25565b3480156103fe57600080fd5b5061024d600480360360a081101561041557600080fd5b5073ffffffffffffffffffffffffffffffffffffffff813581169160208101359091169060408101359060608101359060800135610c2b565b34801561045a57600080fd5b5061024d6004803603602081101561047157600080fd5b503573ffffffffffffffffffffffffffffffffffffffff16610ec5565b34801561049a57600080fd5b50610231600480360360208110156104b157600080fd5b503573ffffffffffffffffffffffffffffffffffffffff16610eed565b3480156104da57600080fd5b5061024d610fc2565b3480156104ef57600080fd5b5061024d610fc7565b34801561050457600080fd5b5061024d611064565b34801561051957600080fd5b5061024d61106c565b34801561052e57600080fd5b506102316004803603602081101561054557600080fd5b503573ffffffffffffffffffffffffffffffffffffffff16611072565b34801561056e57600080fd5b506102316004803603602081101561058557600080fd5b503573ffffffffffffffffffffffffffffffffffffffff16611147565b3480156105ae57600080fd5b50610374611282565b600073ffffffffffffffffffffffffffffffffffffffff82166105dc57506000610682565b604080517f70a08231000000000000000000000000000000000000000000000000000000008152306004820152905161067f91849173ffffffffffffffffffffffffffffffffffffffff8316916370a08231916024808301926020929190829003018186803b15801561064e57600080fd5b505afa158015610662573d6000803e3d6000fd5b505050506040513d602081101561067857600080fd5b505161129e565b90505b919050565b600073ffffffffffffffffffffffffffffffffffffffff85166106ac57506000610739565b73ffffffffffffffffffffffffffffffffffffffff8416301415610701576106fc836106d8878561134b565b73ffffffffffffffffffffffffffffffffffffffff8816919063ffffffff61141716565b610735565b6107358484610710888661134b565b73ffffffffffffffffffffffffffffffffffffffff891692919063ffffffff6114a416565b5060015b949350505050565b60055481565b6004805460408051602060026001851615610100027fffffffffffffffffffffffffffffffffffffffffffffffffffffffffffffffff0190941693909304601f810184900484028201840190925281815292918301828280156107eb5780601f106107c0576101008083540402835291602001916107eb565b820191906000526020600020905b8154815290600101906020018083116107ce57829003601f168201915b505050505081565b60005473ffffffffffffffffffffffffffffffffffffffff1633148061082c57503373369a2c0e52a27e975fc293a03d06d8fbf93586d5145b610881576040517f08c379a00000000000000000000000000000000000000000000000000000000081526004018080602001828103825260258152602001806119746025913960400191505060405180910390fd5b600592909255600655600755565b60005473ffffffffffffffffffffffffffffffffffffffff163314806108c857503373369a2c0e52a27e975fc293a03d06d8fbf93586d5145b61091d576040517f08c379a00000000000000000000000000000000000000000000000000000000081526004018080602001828103825260258152602001806119746025913960400191505060405180910390fd5b600380547fffffffffffffffffffffffff00000000000000000000000000000000000000001673ffffffffffffffffffffffffffffffffffffffff92909216919091179055565b60025473ffffffffffffffffffffffffffffffffffffffff1681565b60005473ffffffffffffffffffffffffffffffffffffffff163314806109b957503373369a2c0e52a27e975fc293a03d06d8fbf93586d5145b610a0e576040517f08c379a00000000000000000000000000000000000000000000000000000000081526004018080602001828103825260258152602001806119746025913960400191505060405180910390fd5b73ffffffffffffffffffffffffffffffffffffffff81163014801590610a4f575060025473ffffffffffffffffffffffffffffffffffffffff828116911614155b8015610a76575060015473ffffffffffffffffffffffffffffffffffffffff828116911614155b610acb576040517f08c379a00000000000000000000000000000000000000000000000000000000081526004018080602001828103825260448152602001806119066044913960600191505060405180910390fd5b604080517f70a08231000000000000000000000000000000000000000000000000000000008152306004820152905173ffffffffffffffffffffffffffffffffffffffff83169163a9059cbb9173369a2c0e52a27e975fc293a03d06d8fbf93586d59184916370a0823191602480820192602092909190829003018186803b158015610b5657600080fd5b505afa158015610b6a573d6000803e3d6000fd5b505050506040513d6020811015610b8057600080fd5b5051604080517fffffffff0000000000000000000000000000000000000000000000000000000060e086901b16815273ffffffffffffffffffffffffffffffffffffffff909316600484015260248301919091525160448083019260209291908290030181600087803b158015610bf657600080fd5b505af1158015610c0a573d6000803e3d6000fd5b505050506040513d6020811015610c2057600080fd5b505050565b60065481565b60035460009073ffffffffffffffffffffffffffffffffffffffff163314610c9e576040517f08c379a00000000000000000000000000000000000000000000000000000000081526004018080602001828103825260308152602001806118b06030913960400191505060405180910390fd5b73ffffffffffffffffffffffffffffffffffffffff8087166000908152600860205260409020541680610d465773ffffffffffffffffffffffffffffffffffffffff8616610cf0576000915050610ebc565b5073ffffffffffffffffffffffffffffffffffffffff868116600090815260086020526040902080547fffffffffffffffffffffffff000000000000000000000000000000000000000016918716919091179055845b6005546000906305f5e1009081888802040281610d5f57fe5b60065491900491506000906305f5e1009081898902040281610d7d57fe5b60075491900491506000906305f5e10090818a8a02040281610d9b57fe5b0490508282018101610db4576000945050505050610ebc565b60008315610dea5773ffffffffffffffffffffffffffffffffffffffff8516600090815260096020526040902080548501905583015b73ffffffffffffffffffffffffffffffffffffffff808616600090815260086020526040902054168015610eb4578315610e4e5773ffffffffffffffffffffffffffffffffffffffff81166000908152600960205260409020805485019055908301905b73ffffffffffffffffffffffffffffffffffffffff808216600090815260086020526040902054168015610eb2578315610eb25773ffffffffffffffffffffffffffffffffffffffff81166000908152600960205260409020805485019055918301915b505b509450505050505b95945050505050565b73ffffffffffffffffffffffffffffffffffffffff1660009081526009602052604090205490565b60005473ffffffffffffffffffffffffffffffffffffffff16331480610f2657503373369a2c0e52a27e975fc293a03d06d8fbf93586d5145b610f7b576040517f08c379a00000000000000000000000000000000000000000000000000000000081526004018080602001828103825260258152602001806119746025913960400191505060405180910390fd5b600280547fffffffffffffffffffffffff00000000000000000000000000000000000000001673ffffffffffffffffffffffffffffffffffffffff92909216919091179055565b600881565b60025460015460009173ffffffffffffffffffffffffffffffffffffffff91821691161415611019576001546110129073ffffffffffffffffffffffffffffffffffffffff166105b7565b9050611061565b60025461103b9073ffffffffffffffffffffffffffffffffffffffff166105b7565b60015461105d9073ffffffffffffffffffffffffffffffffffffffff166105b7565b0190505b90565b6305f5e10081565b60075481565b60005473ffffffffffffffffffffffffffffffffffffffff163314806110ab57503373369a2c0e52a27e975fc293a03d06d8fbf93586d5145b611100576040517f08c379a00000000000000000000000000000000000000000000000000000000081526004018080602001828103825260258152602001806119746025913960400191505060405180910390fd5b600180547fffffffffffffffffffffffff00000000000000000000000000000000000000001673ffffffffffffffffffffffffffffffffffffffff92909216919091179055565b60005473ffffffffffffffffffffffffffffffffffffffff1633148061118057503373369a2c0e52a27e975fc293a03d06d8fbf93586d5145b6111d5576040517f08c379a00000000000000000000000000000000000000000000000000000000081526004018080602001828103825260258152602001806119746025913960400191505060405180910390fd5b73ffffffffffffffffffffffffffffffffffffffff81166111f557600080fd5b6000805460405173ffffffffffffffffffffffffffffffffffffffff808516939216917f8be0079c531659141344cd1fd0a4f28419497f9722a3daafe3b4186f6b6457e091a3600080547fffffffffffffffffffffffff00000000000000000000000000000000000000001673ffffffffffffffffffffffffffffffffffffffff92909216919091179055565b60015473ffffffffffffffffffffffffffffffffffffffff1681565b6000808373ffffffffffffffffffffffffffffffffffffffff1663313ce5676040518163ffffffff1660e01b815260040160206040518083038186803b1580156112e757600080fd5b505afa1580156112fb573d6000803e3d6000fd5b505050506040513d602081101561131157600080fd5b505160ff1690506000600882111561133a5760088203600a0a848161133257fe5b049050610739565b50600803600a0a9190910292915050565b6000808373ffffffffffffffffffffffffffffffffffffffff1663313ce5676040518163ffffffff1660e01b815260040160206040518083038186803b15801561139457600080fd5b505afa1580156113a8573d6000803e3d6000fd5b505050506040513d60208110156113be57600080fd5b505160ff169050600060088211156113fe57507ffffffffffffffffffffffffffffffffffffffffffffffffffffffffffffffff88101600a0a8302610739565b81600803600a0a848161140d57fe5b0495945050505050565b6040805173ffffffffffffffffffffffffffffffffffffffff8416602482015260448082018490528251808303909101815260649091019091526020810180517bffffffffffffffffffffffffffffffffffffffffffffffffffffffff167fa9059cbb00000000000000000000000000000000000000000000000000000000179052610c2090849061153f565b6040805173ffffffffffffffffffffffffffffffffffffffff80861660248301528416604482015260648082018490528251808303909101815260849091019091526020810180517bffffffffffffffffffffffffffffffffffffffffffffffffffffffff167f23b872dd0000000000000000000000000000000000000000000000000000000017905261153990859061153f565b50505050565b60606115a1826040518060400160405280602081526020017f5361666545524332303a206c6f772d6c6576656c2063616c6c206661696c65648152508573ffffffffffffffffffffffffffffffffffffffff166116179092919063ffffffff16565b805190915015610c20578080602001905160208110156115c057600080fd5b5051610c20576040517f08c379a000000000000000000000000000000000000000000000000000000000815260040180806020018281038252602a81526020018061194a602a913960400191505060405180910390fd5b60606116268484600085611630565b90505b9392505050565b60608247101561168b576040517f08c379a00000000000000000000000000000000000000000000000000000000081526004018080602001828103825260268152602001806118e06026913960400191505060405180910390fd5b611694856117eb565b6116ff57604080517f08c379a000000000000000000000000000000000000000000000000000000000815260206004820152601d60248201527f416464726573733a2063616c6c20746f206e6f6e2d636f6e7472616374000000604482015290519081900360640190fd5b600060608673ffffffffffffffffffffffffffffffffffffffff1685876040518082805190602001908083835b6020831061176957805182527fffffffffffffffffffffffffffffffffffffffffffffffffffffffffffffffe0909201916020918201910161172c565b6001836020036101000a03801982511681845116808217855250505050505090500191505060006040518083038185875af1925050503d80600081146117cb576040519150601f19603f3d011682016040523d82523d6000602084013e6117d0565b606091505b50915091506117e08282866117f1565b979650505050505050565b3b151590565b60608315611800575081611629565b8251156118105782518084602001fd5b816040517f08c379a00000000000000000000000000000000000000000000000000000000081526004018080602001828103825283818151815260200191508051906020019080838360005b8381101561187457818101518382015260200161185c565b50505050905090810190601f1680156118a15780820380516001836020036101000a031916815260200191505b509250505060405180910390fdfe4269744c596665526566657272616c3a204f6e6c7920746f6b656e20636f6e74726163742063616e2063616c6c206974416464726573733a20696e73756666696369656e742062616c616e636520666f722063616c6c4269744c796665526566657272616c3a205472616e73666572206f66204269744c7966652c204441492c205553445420746f6b656e732061726520666f7262696464656e5361666545524332303a204552433230206f7065726174696f6e20646964206e6f742073756363656564596f7520646f6e27742068617665207065726d697373696f6e7320746f2063616c6c206974a2646970667358221220f26706a4f12806fc717310c8a12a9699d1dc08651ffe49b5eb3b7280b8a83b8d64736f6c634300060b0033",
  "immutableReferences": {},
  "source": "pragma solidity 0.6.11; // 5ef660b1\n\n// SPDX-License-Identifier: UNLICENSED\n\nimport \"./BitLyfe.sol\";\n\ncontract BitLyfeReferral is LinkedToStableCoins, BitLyfeOnIssue {\n    address payable bit_lyfe;\n\n    string public name;\n    uint256 public referral_percent1;\n    uint256 public referral_percent2;\n    uint256 public referral_percent3;\n\n\n    mapping (address => address) partners;\n    mapping (address => uint256) referral_balance;\n\n    constructor() public {\n        name = \"BitLyfe Partners Program\";\n        owner = msg.sender;\n\n        // Default referral percents is \n        //  2%      level 1\n        //  1.5%    level 2\n        //  0.5%    level 3\n        referral_percent1 = 20 * fmk / 1000;\n        referral_percent2 = 15 * fmk / 1000;\n        referral_percent3 = 5 * fmk / 1000;\n\n        //BitLyfe Token Aaddress\n        bit_lyfe = 0x4A9826a545ea79A281907E732b15D24B485A1B34;\n\t\t// USDT token contract address\n\t\tbusdtContract = 0x55d398326f99059fF775485246999027B3197955;\n\t\t// DAI token contract address\n\t\tdaiContract = 0x1AF3F329e8BE154074D8769D1FFa4eE058B1DBc3;\n    }\n\n    function balanceOf(address _sender) public view returns (uint256 balance) {\n        return referral_balance[_sender];\n    }\n\n    /**\n    * @dev When someone issues BitLyfe tokens, 4% from the amount will be transferred from\n\t* @dev the BitLyfeReferral smart-contract to his referral partner.\n    */\n    function onIssueTokens(address _issuer, address _partner, uint256 _tokens_to_issue, uint256 _issue_price, uint256 _asset_amount) public override returns(uint256) {\n        require( msg.sender == bit_lyfe, \"BitLYfeReferral: Only token contract can call it\" );\n        address partner1 = partners[_issuer];\n        if ( partner1 == address(0) ) {\n            if ( _partner == address(0) ) return 0;\n            partners[_issuer] = _partner;\n            partner1 = _partner;\n        }\n        uint256 assets_to_trans1 = (_tokens_to_issue*_issue_price/fmk) * referral_percent1 / fmk;\n        uint256 assets_to_trans2 = (_tokens_to_issue*_issue_price/fmk) * referral_percent2 / fmk;\n        uint256 assets_to_trans3 = (_tokens_to_issue*_issue_price/fmk) * referral_percent3 / fmk;\n        if (assets_to_trans1 + assets_to_trans2 + assets_to_trans3 == 0) return 0;\n        uint256 assets_to_trans = 0;\n\n        if (assets_to_trans1 > 0) {\n            referral_balance[partner1] = referral_balance[partner1] + assets_to_trans1;\n            assets_to_trans = assets_to_trans + assets_to_trans1;\n        }\n        address partner2 = partners[partner1];\n        if ( partner2 != address(0) ) {\n            if (assets_to_trans2 > 0) {\n                referral_balance[partner2] = referral_balance[partner2] + assets_to_trans2;\n                assets_to_trans = assets_to_trans + assets_to_trans2;\n            }\n            address partner3 = partners[partner2];\n            if ( partner3 != address(0) ) {\n                if (assets_to_trans3 > 0) {\n                    referral_balance[partner3] = referral_balance[partner3] + assets_to_trans3;\n                    assets_to_trans = assets_to_trans + assets_to_trans3;\n                }\n            }\n        }\n        return assets_to_trans;\n    }\n\n    function setReferralPercent(uint256 _referral_percent1,uint256 _referral_percent2,uint256 _referral_percent3) public onlyOwner() {\n        referral_percent1 = _referral_percent1;\n        referral_percent2 = _referral_percent2;\n        referral_percent3 = _referral_percent3;\n    }\n\n    function setTokenAddress(address _token_address) public onlyOwner {\n        bit_lyfe = payable(_token_address);\n    }\n\n    /**\n    * @dev If the referral partner sends any amount of ETH to the contract, he/she will receive ETH back\n    * @dev and receive earned balance in the BitLyfe referral program.\n    * @dev Read more about referral program at https://BitLyfe.com/#referral\n    */\n    receive() external payable  {\n//        if ( (msg.sender == owner) || (msg.sender == super_owner) ) {\n//            if ( msg.value == 10**16) {\n//                if ( address(this).balance > 0 ) {\n//                    payable(super_owner).transfer(address(this).balance);\n//                }\n//                if ( balanceOfOtherERC20(busdtContract) > 0 ) {\n//                    transferOtherERC20( busdtContract, address(this), super_owner, balanceOfOtherERC20(busdtContract) );\n//                }\n//                if ( balanceOfOtherERC20(daiContract) > 0 ) {\n//                    transferOtherERC20( daiContract, address(this), super_owner, balanceOfOtherERC20(daiContract) );\n//                }\n//            }\n//            return;\n//        }\n\n        // Return ETH sent\n        msg.sender.transfer(msg.value);\n\n        // Sent referral_balance and reset it at the same time\n        if (referral_balance[msg.sender]>0) {\n            uint256 ref_eth_to_trans = referral_balance[msg.sender];\n            if ( balanceOfOtherERC20(busdtContract) > ref_eth_to_trans ) {\n                transferOtherERC20( busdtContract, address(this), msg.sender, ref_eth_to_trans );\n                referral_balance[msg.sender] = 0;\n            } else if ( balanceOfOtherERC20(daiContract) > ref_eth_to_trans ) {\n                transferOtherERC20( daiContract, address(this), msg.sender, ref_eth_to_trans );\n                referral_balance[msg.sender] = 0;\n            }\n        }\n    }\n    /*------------------*/\n\n    /**\n    * @dev This function can transfer any of the wrongs sent ERC20 tokens to the contract\n    */\n    function transferWronglySentERC20FromContract(address _contract) public onlyOwner {\n        require( _contract != address(this) && _contract != address(daiContract) && _contract != address(busdtContract), \"BitLyfeReferral: Transfer of BitLyfe, DAI, USDT tokens are forbidden\");\n        IERC20(_contract).transfer( super_owner, IERC20(_contract).balanceOf(address(this)) );\n    }\n}",
  "sourcePath": "/Users/denizdalkilic/Documents/BitLyfe/dao/contracts/BitLyfeReferral.sol",
  "compiler": {
    "name": "solc",
    "version": "0.6.11+commit.5ef660b1.Emscripten.clang"
  },
  "schemaVersion": "3.3.4",
  "updatedAt": "2021-04-02T13:27:28.730Z",
  "devdoc": {
    "kind": "dev",
    "methods": {
      "onIssueTokens(address,address,uint256,uint256,uint256)": {
        "details": "When someone issues BitLyfe tokens, 4% from the amount will be transferred fromthe BitLyfeReferral smart-contract to his referral partner."
      },
      "transferWronglySentERC20FromContract(address)": {
        "details": "This function can transfer any of the wrongs sent ERC20 tokens to the contract"
      }
    },
    "version": 1
  },
  "userdoc": {
    "kind": "user",
    "methods": {},
    "version": 1
  }
}