{
  "contractName": "BitLyfeAssetsBalancer",
  "abi": [
    {
      "inputs": [],
      "stateMutability": "nonpayable",
      "type": "constructor"
    },
    {
      "anonymous": false,
      "inputs": [
        {
          "indexed": true,
          "internalType": "address",
          "name": "previousOwner",
          "type": "address"
        },
        {
          "indexed": true,
          "internalType": "address",
          "name": "newOwner",
          "type": "address"
        }
      ],
      "name": "OwnershipTransferred",
      "type": "event"
    },
    {
      "inputs": [],
      "name": "bit_lyfe",
      "outputs": [
        {
          "internalType": "address",
          "name": "",
          "type": "address"
        }
      ],
      "stateMutability": "view",
      "type": "function"
    },
    {
      "inputs": [],
      "name": "busdtContract",
      "outputs": [
        {
          "internalType": "address",
          "name": "",
          "type": "address"
        }
      ],
      "stateMutability": "view",
      "type": "function"
    },
    {
      "inputs": [],
      "name": "collateral",
      "outputs": [
        {
          "internalType": "uint256",
          "name": "",
          "type": "uint256"
        }
      ],
      "stateMutability": "view",
      "type": "function"
    },
    {
      "inputs": [],
      "name": "daiContract",
      "outputs": [
        {
          "internalType": "address",
          "name": "",
          "type": "address"
        }
      ],
      "stateMutability": "view",
      "type": "function"
    },
    {
      "inputs": [],
      "name": "fmk",
      "outputs": [
        {
          "internalType": "uint256",
          "name": "",
          "type": "uint256"
        }
      ],
      "stateMutability": "view",
      "type": "function"
    },
    {
      "inputs": [],
      "name": "fmkd",
      "outputs": [
        {
          "internalType": "uint256",
          "name": "",
          "type": "uint256"
        }
      ],
      "stateMutability": "view",
      "type": "function"
    },
    {
      "inputs": [],
      "name": "max_slippage",
      "outputs": [
        {
          "internalType": "uint256",
          "name": "",
          "type": "uint256"
        }
      ],
      "stateMutability": "view",
      "type": "function"
    },
    {
      "inputs": [],
      "name": "name",
      "outputs": [
        {
          "internalType": "string",
          "name": "",
          "type": "string"
        }
      ],
      "stateMutability": "view",
      "type": "function"
    },
    {
      "inputs": [],
      "name": "pancakeRouter",
      "outputs": [
        {
          "internalType": "address",
          "name": "",
          "type": "address"
        }
      ],
      "stateMutability": "view",
      "type": "function"
    },
    {
      "inputs": [
        {
          "internalType": "address",
          "name": "_daiContract",
          "type": "address"
        }
      ],
      "name": "setDAIContract",
      "outputs": [],
      "stateMutability": "nonpayable",
      "type": "function"
    },
    {
      "inputs": [
        {
          "internalType": "address",
          "name": "_busdtContract",
          "type": "address"
        }
      ],
      "name": "setUSDTContract",
      "outputs": [],
      "stateMutability": "nonpayable",
      "type": "function"
    },
    {
      "inputs": [
        {
          "internalType": "address",
          "name": "newOwner",
          "type": "address"
        }
      ],
      "name": "transferOwnership",
      "outputs": [],
      "stateMutability": "nonpayable",
      "type": "function"
    },
    {
      "inputs": [],
      "name": "usdt_percent",
      "outputs": [
        {
          "internalType": "uint256",
          "name": "",
          "type": "uint256"
        }
      ],
      "stateMutability": "view",
      "type": "function"
    },
    {
      "inputs": [],
      "name": "autoBalancing",
      "outputs": [
        {
          "internalType": "bool",
          "name": "",
          "type": "bool"
        }
      ],
      "stateMutability": "nonpayable",
      "type": "function"
    },
    {
      "inputs": [
        {
          "internalType": "address",
          "name": "_token_address",
          "type": "address"
        }
      ],
      "name": "setTokenAddress",
      "outputs": [],
      "stateMutability": "nonpayable",
      "type": "function"
    },
    {
      "inputs": [
        {
          "internalType": "uint256",
          "name": "_usdt_percent",
          "type": "uint256"
        }
      ],
      "name": "setUSDTPercent",
      "outputs": [],
      "stateMutability": "nonpayable",
      "type": "function"
    },
    {
      "inputs": [
        {
          "internalType": "uint256",
          "name": "_max_slippage",
          "type": "uint256"
        }
      ],
      "name": "setMaxSlippage",
      "outputs": [],
      "stateMutability": "nonpayable",
      "type": "function"
    },
    {
      "inputs": [
        {
          "internalType": "address",
          "name": "_pancakeRouter",
          "type": "address"
        }
      ],
      "name": "setPancakeRouter",
      "outputs": [],
      "stateMutability": "nonpayable",
      "type": "function"
    }
  ],
  "bytecode": "0x608060405260146007553480156200001657600080fd5b506040805180820190915260188082527f4173736574732042616c616e63657220436f6e7472616374000000000000000060209092019182526200005d91600591620000fd565b50600080546001600160a01b03199081163317909155600380548216734a9826a545ea79a281907e732b15d24b485a1b341790556001805482167355d398326f99059ff775485246999027b3197955179055600280548216731af3f329e8be154074d8769d1ffa4ee058b1dbc3179055600480549091167305ff2b0db69458a0750badebc4f9e13add608c7f1790556064637735940004600655620001a2565b828054600181600116156101000203166002900490600052602060002090601f016020900481019282601f106200014057805160ff191683800117855562000170565b8280016001018555821562000170579182015b828111156200017057825182559160200191906001019062000153565b506200017e92915062000182565b5090565b6200019f91905b808211156200017e576000815560010162000189565b90565b611d8280620001b26000396000f3fe608060405234801561001057600080fd5b50600436106101365760003560e01c8063bb25cf1f116100b2578063dd15a38d11610081578063f2fde38b11610066578063f2fde38b14610324578063f377815614610357578063f8316c901461035f57610136565b8063dd15a38d146102d5578063eaac40f3146102f157610136565b8063bb25cf1f146102b5578063c21ebd07146102bd578063d8dfeb45146102c5578063db4563d3146102cd57610136565b80632ce8b913116101095780637d1b0acd116100ee5780637d1b0acd14610260578063805034fd1461029357806387667e0e146102ad57610136565b80632ce8b9131461023b57806343f68a491461024357610136565b806306fdde031461013b5780630e8bf718146101b857806317135e53146101e957806326a4e8d214610208575b600080fd5b610143610392565b6040805160208082528351818301528351919283929083019185019080838360005b8381101561017d578181015183820152602001610165565b50505050905090810190601f1680156101aa5780820380516001836020036101000a031916815260200191505b509250505060405180910390f35b6101c061043e565b6040805173ffffffffffffffffffffffffffffffffffffffff9092168252519081900360200190f35b610206600480360360208110156101ff57600080fd5b503561045a565b005b6102066004803603602081101561021e57600080fd5b503573ffffffffffffffffffffffffffffffffffffffff166104ed565b6101c06105c2565b6102066004803603602081101561025957600080fd5b50356105de565b6102066004803603602081101561027657600080fd5b503573ffffffffffffffffffffffffffffffffffffffff16610671565b61029b610746565b60408051918252519081900360200190f35b61029b61074b565b61029b610751565b6101c0610757565b61029b610773565b61029b610810565b6102dd610818565b604080519115158252519081900360200190f35b6102066004803603602081101561030757600080fd5b503573ffffffffffffffffffffffffffffffffffffffff16611111565b6102066004803603602081101561033a57600080fd5b503573ffffffffffffffffffffffffffffffffffffffff166111e6565b6101c0611321565b6102066004803603602081101561037557600080fd5b503573ffffffffffffffffffffffffffffffffffffffff1661133d565b6005805460408051602060026001851615610100027fffffffffffffffffffffffffffffffffffffffffffffffffffffffffffffffff0190941693909304601f810184900484028201840190925281815292918301828280156104365780601f1061040b57610100808354040283529160200191610436565b820191906000526020600020905b81548152906001019060200180831161041957829003601f168201915b505050505081565b60035473ffffffffffffffffffffffffffffffffffffffff1681565b60005473ffffffffffffffffffffffffffffffffffffffff1633148061049357503373369a2c0e52a27e975fc293a03d06d8fbf93586d5145b6104e8576040517f08c379a0000000000000000000000000000000000000000000000000000000008152600401808060200182810382526025815260200180611d286025913960400191505060405180910390fd5b600655565b60005473ffffffffffffffffffffffffffffffffffffffff1633148061052657503373369a2c0e52a27e975fc293a03d06d8fbf93586d5145b61057b576040517f08c379a0000000000000000000000000000000000000000000000000000000008152600401808060200182810382526025815260200180611d286025913960400191505060405180910390fd5b600380547fffffffffffffffffffffffff00000000000000000000000000000000000000001673ffffffffffffffffffffffffffffffffffffffff92909216919091179055565b60025473ffffffffffffffffffffffffffffffffffffffff1681565b60005473ffffffffffffffffffffffffffffffffffffffff1633148061061757503373369a2c0e52a27e975fc293a03d06d8fbf93586d5145b61066c576040517f08c379a0000000000000000000000000000000000000000000000000000000008152600401808060200182810382526025815260200180611d286025913960400191505060405180910390fd5b600755565b60005473ffffffffffffffffffffffffffffffffffffffff163314806106aa57503373369a2c0e52a27e975fc293a03d06d8fbf93586d5145b6106ff576040517f08c379a0000000000000000000000000000000000000000000000000000000008152600401808060200182810382526025815260200180611d286025913960400191505060405180910390fd5b600280547fffffffffffffffffffffffff00000000000000000000000000000000000000001673ffffffffffffffffffffffffffffffffffffffff92909216919091179055565b600881565b60075481565b60065481565b60045473ffffffffffffffffffffffffffffffffffffffff1681565b60025460015460009173ffffffffffffffffffffffffffffffffffffffff918216911614156107c5576001546107be9073ffffffffffffffffffffffffffffffffffffffff16611412565b905061080d565b6002546107e79073ffffffffffffffffffffffffffffffffffffffff16611412565b6001546108099073ffffffffffffffffffffffffffffffffffffffff16611412565b0190505b90565b6305f5e10081565b60025460015460009173ffffffffffffffffffffffffffffffffffffffff918216911614156108495750600061080d565b6001546003546000916108759173ffffffffffffffffffffffffffffffffffffffff91821691166114e2565b6002546003549192506000916108a49173ffffffffffffffffffffffffffffffffffffffff90811691166114e2565b6006549091506000908190819081906305f5e1009087870102048611156108dc576006546305f5e10090868801020486039350610908565b6006546305f5e1009086880102048660020210156109085760065486906305f5e1009087830102040392505b83158015610914575082155b15610928576000965050505050505061080d565b604080516003808252608082019092526060916020820183803683370190505090508415610d2857600154815173ffffffffffffffffffffffffffffffffffffffff90911690829060009061097957fe5b602002602001019073ffffffffffffffffffffffffffffffffffffffff16908173ffffffffffffffffffffffffffffffffffffffff1681525050600460009054906101000a900473ffffffffffffffffffffffffffffffffffffffff1673ffffffffffffffffffffffffffffffffffffffff1663ad5c46486040518163ffffffff1660e01b815260040160206040518083038186803b158015610a1b57600080fd5b505afa158015610a2f573d6000803e3d6000fd5b505050506040513d6020811015610a4557600080fd5b5051815182906001908110610a5657fe5b73ffffffffffffffffffffffffffffffffffffffff92831660209182029290920101526002805483519216918391908110610a8d57fe5b73ffffffffffffffffffffffffffffffffffffffff9283166020918202929092010152600154610abe911686611591565b6007546002549194506103e89190820390610aef9073ffffffffffffffffffffffffffffffffffffffff1688611591565b0281610af757fe5b600354600154929091049350610b2e9173ffffffffffffffffffffffffffffffffffffffff9081169116308663ffffffff61165f16565b600454600154610b5e9173ffffffffffffffffffffffffffffffffffffffff91821691168563ffffffff6116fa16565b600480546003546040517f38ed17390000000000000000000000000000000000000000000000000000000081529283018681526024840186905273ffffffffffffffffffffffffffffffffffffffff91821660648501819052426084860181905260a060448701908152875160a4880152875194909516956338ed1739958a958a958a95949390929160c4909101906020808801910280838360005b83811015610c12578181015183820152602001610bfa565b505050509050019650505050505050600060405180830381600087803b158015610c3b57600080fd5b505af1158015610c4f573d6000803e3d6000fd5b505050506040513d6000823e601f3d9081017fffffffffffffffffffffffffffffffffffffffffffffffffffffffffffffffe01682016040526020811015610c9657600080fd5b8101908080516040519392919084640100000000821115610cb657600080fd5b908301906020820185811115610ccb57600080fd5b8251866020820283011164010000000082111715610ce857600080fd5b82525081516020918201928201910280838360005b83811015610d15578181015183820152602001610cfd565b5050505090500160405250505050611103565b831561110357600254815173ffffffffffffffffffffffffffffffffffffffff909116908290600090610d5757fe5b602002602001019073ffffffffffffffffffffffffffffffffffffffff16908173ffffffffffffffffffffffffffffffffffffffff1681525050600460009054906101000a900473ffffffffffffffffffffffffffffffffffffffff1673ffffffffffffffffffffffffffffffffffffffff1663ad5c46486040518163ffffffff1660e01b815260040160206040518083038186803b158015610df957600080fd5b505afa158015610e0d573d6000803e3d6000fd5b505050506040513d6020811015610e2357600080fd5b5051815182906001908110610e3457fe5b73ffffffffffffffffffffffffffffffffffffffff9283166020918202929092010152600154825191169082906002908110610e6c57fe5b73ffffffffffffffffffffffffffffffffffffffff9283166020918202929092010152600254610e9d911685611591565b6007546001549194506103e89190820390610ece9073ffffffffffffffffffffffffffffffffffffffff1687611591565b0281610ed657fe5b600354600254929091049350610f0d9173ffffffffffffffffffffffffffffffffffffffff9081169116308663ffffffff61165f16565b600454600254610f3d9173ffffffffffffffffffffffffffffffffffffffff91821691168563ffffffff6116fa16565b600480546003546040517f38ed17390000000000000000000000000000000000000000000000000000000081529283018681526024840186905273ffffffffffffffffffffffffffffffffffffffff91821660648501819052426084860181905260a060448701908152875160a4880152875194909516956338ed1739958a958a958a95949390929160c4909101906020808801910280838360005b83811015610ff1578181015183820152602001610fd9565b505050509050019650505050505050600060405180830381600087803b15801561101a57600080fd5b505af115801561102e573d6000803e3d6000fd5b505050506040513d6000823e601f3d9081017fffffffffffffffffffffffffffffffffffffffffffffffffffffffffffffffe0168201604052602081101561107557600080fd5b810190808051604051939291908464010000000082111561109557600080fd5b9083019060208201858111156110aa57600080fd5b82518660208202830111640100000000821117156110c757600080fd5b82525081516020918201928201910280838360005b838110156110f45781810151838201526020016110dc565b50505050905001604052505050505b600197505050505050505090565b60005473ffffffffffffffffffffffffffffffffffffffff1633148061114a57503373369a2c0e52a27e975fc293a03d06d8fbf93586d5145b61119f576040517f08c379a0000000000000000000000000000000000000000000000000000000008152600401808060200182810382526025815260200180611d286025913960400191505060405180910390fd5b600180547fffffffffffffffffffffffff00000000000000000000000000000000000000001673ffffffffffffffffffffffffffffffffffffffff92909216919091179055565b60005473ffffffffffffffffffffffffffffffffffffffff1633148061121f57503373369a2c0e52a27e975fc293a03d06d8fbf93586d5145b611274576040517f08c379a0000000000000000000000000000000000000000000000000000000008152600401808060200182810382526025815260200180611d286025913960400191505060405180910390fd5b73ffffffffffffffffffffffffffffffffffffffff811661129457600080fd5b6000805460405173ffffffffffffffffffffffffffffffffffffffff808516939216917f8be0079c531659141344cd1fd0a4f28419497f9722a3daafe3b4186f6b6457e091a3600080547fffffffffffffffffffffffff00000000000000000000000000000000000000001673ffffffffffffffffffffffffffffffffffffffff92909216919091179055565b60015473ffffffffffffffffffffffffffffffffffffffff1681565b60005473ffffffffffffffffffffffffffffffffffffffff1633148061137657503373369a2c0e52a27e975fc293a03d06d8fbf93586d5145b6113cb576040517f08c379a0000000000000000000000000000000000000000000000000000000008152600401808060200182810382526025815260200180611d286025913960400191505060405180910390fd5b600480547fffffffffffffffffffffffff00000000000000000000000000000000000000001673ffffffffffffffffffffffffffffffffffffffff92909216919091179055565b600073ffffffffffffffffffffffffffffffffffffffff8216611437575060006114dd565b604080517f70a0823100000000000000000000000000000000000000000000000000000000815230600482015290516114da91849173ffffffffffffffffffffffffffffffffffffffff8316916370a08231916024808301926020929190829003018186803b1580156114a957600080fd5b505afa1580156114bd573d6000803e3d6000fd5b505050506040513d60208110156114d357600080fd5b5051611841565b90505b919050565b600073ffffffffffffffffffffffffffffffffffffffff83166115075750600061158b565b611588838473ffffffffffffffffffffffffffffffffffffffff166370a08231856040518263ffffffff1660e01b8152600401808273ffffffffffffffffffffffffffffffffffffffff1673ffffffffffffffffffffffffffffffffffffffff16815260200191505060206040518083038186803b1580156114a957600080fd5b90505b92915050565b6000808373ffffffffffffffffffffffffffffffffffffffff1663313ce5676040518163ffffffff1660e01b815260040160206040518083038186803b1580156115da57600080fd5b505afa1580156115ee573d6000803e3d6000fd5b505050506040513d602081101561160457600080fd5b505160ff1690506000600882111561164457507ffffffffffffffffffffffffffffffffffffffffffffffffffffffffffffffff88101600a0a8302611657565b81600803600a0a848161165357fe5b0490505b949350505050565b6040805173ffffffffffffffffffffffffffffffffffffffff80861660248301528416604482015260648082018490528251808303909101815260849091019091526020810180517bffffffffffffffffffffffffffffffffffffffffffffffffffffffff167f23b872dd000000000000000000000000000000000000000000000000000000001790526116f49085906118ee565b50505050565b604080517fdd62ed3e00000000000000000000000000000000000000000000000000000000815230600482015273ffffffffffffffffffffffffffffffffffffffff848116602483015291516000926117b19285929188169163dd62ed3e91604480820192602092909190829003018186803b15801561177957600080fd5b505afa15801561178d573d6000803e3d6000fd5b505050506040513d60208110156117a357600080fd5b50519063ffffffff6119cb16565b6040805173ffffffffffffffffffffffffffffffffffffffff8616602482015260448082018490528251808303909101815260649091019091526020810180517bffffffffffffffffffffffffffffffffffffffffffffffffffffffff167f095ea7b3000000000000000000000000000000000000000000000000000000001790529091506116f49085906118ee565b6000808373ffffffffffffffffffffffffffffffffffffffff1663313ce5676040518163ffffffff1660e01b815260040160206040518083038186803b15801561188a57600080fd5b505afa15801561189e573d6000803e3d6000fd5b505050506040513d60208110156118b457600080fd5b505160ff169050600060088211156118dd5760088203600a0a84816118d557fe5b049050611657565b50600803600a0a9190910292915050565b6060611950826040518060400160405280602081526020017f5361666545524332303a206c6f772d6c6576656c2063616c6c206661696c65648152508573ffffffffffffffffffffffffffffffffffffffff16611a3f9092919063ffffffff16565b8051909150156119c65780806020019051602081101561196f57600080fd5b50516119c6576040517f08c379a000000000000000000000000000000000000000000000000000000000815260040180806020018281038252602a815260200180611cfe602a913960400191505060405180910390fd5b505050565b60008282018381101561158857604080517f08c379a000000000000000000000000000000000000000000000000000000000815260206004820152601b60248201527f536166654d6174683a206164646974696f6e206f766572666c6f770000000000604482015290519081900360640190fd5b6060611a4e8484600085611a58565b90505b9392505050565b606082471015611ab3576040517f08c379a0000000000000000000000000000000000000000000000000000000008152600401808060200182810382526026815260200180611cd86026913960400191505060405180910390fd5b611abc85611c13565b611b2757604080517f08c379a000000000000000000000000000000000000000000000000000000000815260206004820152601d60248201527f416464726573733a2063616c6c20746f206e6f6e2d636f6e7472616374000000604482015290519081900360640190fd5b600060608673ffffffffffffffffffffffffffffffffffffffff1685876040518082805190602001908083835b60208310611b9157805182527fffffffffffffffffffffffffffffffffffffffffffffffffffffffffffffffe09092019160209182019101611b54565b6001836020036101000a03801982511681845116808217855250505050505090500191505060006040518083038185875af1925050503d8060008114611bf3576040519150601f19603f3d011682016040523d82523d6000602084013e611bf8565b606091505b5091509150611c08828286611c19565b979650505050505050565b3b151590565b60608315611c28575081611a51565b825115611c385782518084602001fd5b816040517f08c379a00000000000000000000000000000000000000000000000000000000081526004018080602001828103825283818151815260200191508051906020019080838360005b83811015611c9c578181015183820152602001611c84565b50505050905090810190601f168015611cc95780820380516001836020036101000a031916815260200191505b509250505060405180910390fdfe416464726573733a20696e73756666696369656e742062616c616e636520666f722063616c6c5361666545524332303a204552433230206f7065726174696f6e20646964206e6f742073756363656564596f7520646f6e27742068617665207065726d697373696f6e7320746f2063616c6c206974a26469706673582212203f5184159a4260a70d19b2a187732e2de1c8f9e289d92882b16d65af4d7538ed64736f6c634300060b0033",
  "immutableReferences": {},
  "source": "pragma solidity 0.6.11; // 5ef660b1\n\n// SPDX-License-Identifier: UNLICENSED\n\nimport \"./BitLyfe.sol\";\n\ncontract BitLyfeAssetsBalancer is abstractBitLyfeAssetsBalancer, LinkedToStableCoins {\n    address public bit_lyfe;\n    address public pancakeRouter;\n\n    string public name;\n    uint256 public usdt_percent;\n\n    // Max slippage of swap is 2 %, fixed point decimal 3  ( 1% == 10 )\n    uint public max_slippage = 20;\n\n    constructor() public {\n        name = \"Assets Balancer Contract\";\n        owner = msg.sender;\n        \n        //BitLyfe Token Aaddress\n        bit_lyfe = 0x4A9826a545ea79A281907E732b15D24B485A1B34;\n\n\t\t// USDT token contract address\n\t\tbusdtContract = 0x55d398326f99059fF775485246999027B3197955;\n\t\t// DAI token contract address\n\t\tdaiContract = 0x1AF3F329e8BE154074D8769D1FFa4eE058B1DBc3;\n\t\t// Pancake V2 Router\n\t\tpancakeRouter = 0x05fF2B0DB69458A0750badebc4f9e13aDd608C7F;\n\n        // Store 20% of collateral in USDT\n        usdt_percent = fmk * 20 / 100;\n    }\n\n    function autoBalancing() public override returns (bool){\n        if ( busdtContract == daiContract ) return false;\n        uint256 usdtBal = balanceOfOtherERC20AtAddress(busdtContract, bit_lyfe);\n        uint256 daiBal = balanceOfOtherERC20AtAddress(daiContract, bit_lyfe);\n        uint256 needToSellUSDT = 0;\n        uint256 needToSellDAI = 0;\n        uint256 in_amount;\n        uint256 out_amount;\n        if ( usdtBal > ( (daiBal+usdtBal) * usdt_percent / fmk) ) {\n            needToSellUSDT = usdtBal - ((daiBal+usdtBal) * usdt_percent / fmk);\n        } else if ( usdtBal * 2 < ((daiBal+usdtBal) * usdt_percent / fmk) ) {\n            needToSellDAI = ((daiBal+usdtBal) * usdt_percent / fmk) - usdtBal;\n        }\n        if ( needToSellUSDT == 0 && needToSellDAI == 0 ) return false;\n        // Using path ERC20 -> WETH -> DAI because most of liquidity in pairs with ETH\n        // and resulted amount of tokens will be greater than in direct pair\n        address[] memory path = new address[](3);\n        if ( needToSellUSDT > 0 ) {\n            path[0] = busdtContract;\n            path[1] = IPancakeRouter02(pancakeRouter).WETH();\n            path[2] = daiContract;\n            in_amount = fixedPointAmountToTokenAmount(busdtContract,needToSellUSDT);\n            out_amount = fixedPointAmountToTokenAmount(daiContract,needToSellUSDT) * (1000-max_slippage) / 1000;\n            IERC20(busdtContract).safeTransferFrom(bit_lyfe,address(this),in_amount);\n            IERC20(busdtContract).safeIncreaseAllowance(pancakeRouter,in_amount);\n\n            IPancakeRouter02(pancakeRouter).swapExactTokensForTokens(in_amount, out_amount, path, bit_lyfe, block.timestamp);\n        } else if ( needToSellDAI > 0 ) {\n            path[0] = daiContract;\n            path[1] = IPancakeRouter02(pancakeRouter).WETH();\n            path[2] = busdtContract;\n            in_amount = fixedPointAmountToTokenAmount(daiContract,needToSellDAI);\n            out_amount = fixedPointAmountToTokenAmount(busdtContract,needToSellDAI) * (1000-max_slippage) / 1000;\n            IERC20(daiContract).safeTransferFrom(bit_lyfe,address(this),in_amount);\n            IERC20(daiContract).safeIncreaseAllowance(pancakeRouter,in_amount);\n\n            IPancakeRouter02(pancakeRouter).swapExactTokensForTokens(in_amount, out_amount, path, bit_lyfe, block.timestamp);\n        }\n        return true;\n    }\n\n    function setTokenAddress(address _token_address) public onlyOwner {\n        bit_lyfe = payable(_token_address);\n    }\n\n    function setUSDTPercent(uint256 _usdt_percent) public onlyOwner {\n        usdt_percent = _usdt_percent;\n    }\n\n    function setMaxSlippage(uint256 _max_slippage) public onlyOwner {\n        max_slippage = _max_slippage;\n    }\n\n    function setPancakeRouter(address _pancakeRouter) public onlyOwner {\n        pancakeRouter = payable(_pancakeRouter);\n    }\n}",
  "sourcePath": "/Users/denizdalkilic/Documents/BitLyfe/dao/contracts/BitLyfeAssetsBalancer.sol",
  "compiler": {
    "name": "solc",
    "version": "0.6.11+commit.5ef660b1.Emscripten.clang"
  },
  "schemaVersion": "3.3.4",
  "updatedAt": "2021-04-02T13:27:28.717Z",
  "devdoc": {
    "kind": "dev",
    "methods": {},
    "version": 1
  },
  "userdoc": {
    "kind": "user",
    "methods": {},
    "version": 1
  }
}