{
  "contractName": "BitLyfeBonus",
  "abi": [
    {
      "inputs": [],
      "stateMutability": "nonpayable",
      "type": "constructor"
    },
    {
      "anonymous": false,
      "inputs": [
        {
          "indexed": true,
          "internalType": "address",
          "name": "previousOwner",
          "type": "address"
        },
        {
          "indexed": true,
          "internalType": "address",
          "name": "newOwner",
          "type": "address"
        }
      ],
      "name": "OwnershipTransferred",
      "type": "event"
    },
    {
      "inputs": [],
      "name": "bonus_percent",
      "outputs": [
        {
          "internalType": "uint256",
          "name": "",
          "type": "uint256"
        }
      ],
      "stateMutability": "view",
      "type": "function"
    },
    {
      "inputs": [],
      "name": "busdtContract",
      "outputs": [
        {
          "internalType": "address",
          "name": "",
          "type": "address"
        }
      ],
      "stateMutability": "view",
      "type": "function"
    },
    {
      "inputs": [],
      "name": "collateral",
      "outputs": [
        {
          "internalType": "uint256",
          "name": "",
          "type": "uint256"
        }
      ],
      "stateMutability": "view",
      "type": "function"
    },
    {
      "inputs": [],
      "name": "daiContract",
      "outputs": [
        {
          "internalType": "address",
          "name": "",
          "type": "address"
        }
      ],
      "stateMutability": "view",
      "type": "function"
    },
    {
      "inputs": [],
      "name": "fmk",
      "outputs": [
        {
          "internalType": "uint256",
          "name": "",
          "type": "uint256"
        }
      ],
      "stateMutability": "view",
      "type": "function"
    },
    {
      "inputs": [],
      "name": "fmkd",
      "outputs": [
        {
          "internalType": "uint256",
          "name": "",
          "type": "uint256"
        }
      ],
      "stateMutability": "view",
      "type": "function"
    },
    {
      "inputs": [],
      "name": "last_bonus_block_num",
      "outputs": [
        {
          "internalType": "uint256",
          "name": "",
          "type": "uint256"
        }
      ],
      "stateMutability": "view",
      "type": "function"
    },
    {
      "inputs": [],
      "name": "name",
      "outputs": [
        {
          "internalType": "string",
          "name": "",
          "type": "string"
        }
      ],
      "stateMutability": "view",
      "type": "function"
    },
    {
      "inputs": [
        {
          "internalType": "address",
          "name": "_daiContract",
          "type": "address"
        }
      ],
      "name": "setDAIContract",
      "outputs": [],
      "stateMutability": "nonpayable",
      "type": "function"
    },
    {
      "inputs": [
        {
          "internalType": "address",
          "name": "_busdtContract",
          "type": "address"
        }
      ],
      "name": "setUSDTContract",
      "outputs": [],
      "stateMutability": "nonpayable",
      "type": "function"
    },
    {
      "inputs": [
        {
          "internalType": "address",
          "name": "newOwner",
          "type": "address"
        }
      ],
      "name": "transferOwnership",
      "outputs": [],
      "stateMutability": "nonpayable",
      "type": "function"
    },
    {
      "stateMutability": "payable",
      "type": "receive"
    },
    {
      "inputs": [
        {
          "internalType": "address",
          "name": "_issuer",
          "type": "address"
        },
        {
          "internalType": "address",
          "name": "_partner",
          "type": "address"
        },
        {
          "internalType": "uint256",
          "name": "_tokens_to_issue",
          "type": "uint256"
        },
        {
          "internalType": "uint256",
          "name": "_issue_price",
          "type": "uint256"
        },
        {
          "internalType": "uint256",
          "name": "_asset_amount",
          "type": "uint256"
        }
      ],
      "name": "onIssueTokens",
      "outputs": [
        {
          "internalType": "uint256",
          "name": "",
          "type": "uint256"
        }
      ],
      "stateMutability": "nonpayable",
      "type": "function"
    },
    {
      "inputs": [
        {
          "internalType": "address",
          "name": "_token_address",
          "type": "address"
        }
      ],
      "name": "setTokenAddress",
      "outputs": [],
      "stateMutability": "nonpayable",
      "type": "function"
    },
    {
      "inputs": [
        {
          "internalType": "uint256",
          "name": "_bonus_percent",
          "type": "uint256"
        }
      ],
      "name": "setBonusPercent",
      "outputs": [],
      "stateMutability": "nonpayable",
      "type": "function"
    }
  ],
  "bytecode": "0x608060405260006006553480156200001657600080fd5b506040805180820190915260168082527f4269744c79666520426f6e757320436f6e74726163740000000000000000000060209092019182526200005d91600491620000e4565b50600080546001600160a01b031990811633179091556003805482167384e8adef529466a213e5e0894fab7f48599708d31790556001805482167355d398326f99059ff775485246999027b319795517905560028054909116731af3f329e8be154074d8769d1ffa4ee058b1dbc317905560646305f5e10004600555600060065562000189565b828054600181600116156101000203166002900490600052602060002090601f016020900481019282601f106200012757805160ff191683800117855562000157565b8280016001018555821562000157579182015b82811115620001575782518255916020019190600101906200013a565b506200016592915062000169565b5090565b6200018691905b8082111562000165576000815560010162000170565b90565b6116e480620001996000396000f3fe6080604052600436106100e15760003560e01c80639207d9081161007f578063db4563d311610059578063db4563d314610350578063eaac40f314610365578063f2fde38b146103a5578063f3778156146103e557610115565b80639207d90814610311578063bef12e6014610326578063d8dfeb451461033b57610115565b806362bd689c116100bb57806362bd689c146102245780636e92e9d21461024e5780637d1b0acd146102bc578063805034fd146102fc57610115565b806306fdde031461011a57806326a4e8d2146101a45780632ce8b913146101e657610115565b366101155760405133903480156108fc02916000818181858888f19350505050158015610112573d6000803e3d6000fd5b50005b600080fd5b34801561012657600080fd5b5061012f6103fa565b6040805160208082528351818301528351919283929083019185019080838360005b83811015610169578181015183820152602001610151565b50505050905090810190601f1680156101965780820380516001836020036101000a031916815260200191505b509250505060405180910390f35b3480156101b057600080fd5b506101e4600480360360208110156101c757600080fd5b503573ffffffffffffffffffffffffffffffffffffffff166104a6565b005b3480156101f257600080fd5b506101fb61057b565b6040805173ffffffffffffffffffffffffffffffffffffffff9092168252519081900360200190f35b34801561023057600080fd5b506101e46004803603602081101561024757600080fd5b5035610597565b34801561025a57600080fd5b506102aa600480360360a081101561027157600080fd5b5073ffffffffffffffffffffffffffffffffffffffff81358116916020810135909116906040810135906060810135906080013561062a565b60408051918252519081900360200190f35b3480156102c857600080fd5b506101e4600480360360208110156102df57600080fd5b503573ffffffffffffffffffffffffffffffffffffffff1661087b565b34801561030857600080fd5b506102aa610950565b34801561031d57600080fd5b506102aa610955565b34801561033257600080fd5b506102aa61095b565b34801561034757600080fd5b506102aa610961565b34801561035c57600080fd5b506102aa6109fe565b34801561037157600080fd5b506101e46004803603602081101561038857600080fd5b503573ffffffffffffffffffffffffffffffffffffffff16610a06565b3480156103b157600080fd5b506101e4600480360360208110156103c857600080fd5b503573ffffffffffffffffffffffffffffffffffffffff16610adb565b3480156103f157600080fd5b506101fb610c16565b6004805460408051602060026001851615610100027fffffffffffffffffffffffffffffffffffffffffffffffffffffffffffffffff0190941693909304601f8101849004840282018401909252818152929183018282801561049e5780601f106104735761010080835404028352916020019161049e565b820191906000526020600020905b81548152906001019060200180831161048157829003601f168201915b505050505081565b60005473ffffffffffffffffffffffffffffffffffffffff163314806104df57503373369a2c0e52a27e975fc293a03d06d8fbf93586d5145b610534576040517f08c379a000000000000000000000000000000000000000000000000000000000815260040180806020018281038252602581526020018061168a6025913960400191505060405180910390fd5b600380547fffffffffffffffffffffffff00000000000000000000000000000000000000001673ffffffffffffffffffffffffffffffffffffffff92909216919091179055565b60025473ffffffffffffffffffffffffffffffffffffffff1681565b60005473ffffffffffffffffffffffffffffffffffffffff163314806105d057503373369a2c0e52a27e975fc293a03d06d8fbf93586d5145b610625576040517f08c379a000000000000000000000000000000000000000000000000000000000815260040180806020018281038252602581526020018061168a6025913960400191505060405180910390fd5b600555565b60035460009073ffffffffffffffffffffffffffffffffffffffff16331461069d576040517f08c379a000000000000000000000000000000000000000000000000000000000815260040180806020018281038252602d815260200180611633602d913960400191505060405180910390fd5b600354604080517f70a0823100000000000000000000000000000000000000000000000000000000815273ffffffffffffffffffffffffffffffffffffffff8981166004830152915160009392909216916370a0823191602480820192602092909190829003018186803b15801561071457600080fd5b505afa158015610728573d6000803e3d6000fd5b505050506040513d602081101561073e57600080fd5b50516005549091506305f5e10090840204858203158061075f575043600654145b1561076d5791506108729050565b4360065560008683038711156107915750600a6305f5e1008784038702040261079f565b50600a6305f5e10086880204025b434060f61c6103e886046103e802860361030914156107c057600182901b91505b80607b141561086b578160016107d4610961565b901c10156107eb5760016107e6610961565b901c91505b6107f6308b84610c32565b508160001b8a60601b6bffffffffffffffffffffffff19167f424f4e55530000000000000000000000000000000000000000000000000000006fffffffffffffffffffffffffffffffff19163060601b60405180826bffffffffffffffffffffffff1916815260200191505060405180910390a35b5090925050505b95945050505050565b60005473ffffffffffffffffffffffffffffffffffffffff163314806108b457503373369a2c0e52a27e975fc293a03d06d8fbf93586d5145b610909576040517f08c379a000000000000000000000000000000000000000000000000000000000815260040180806020018281038252602581526020018061168a6025913960400191505060405180910390fd5b600280547fffffffffffffffffffffffff00000000000000000000000000000000000000001673ffffffffffffffffffffffffffffffffffffffff92909216919091179055565b600881565b60065481565b60055481565b60025460015460009173ffffffffffffffffffffffffffffffffffffffff918216911614156109b3576001546109ac9073ffffffffffffffffffffffffffffffffffffffff16610f04565b90506109fb565b6002546109d59073ffffffffffffffffffffffffffffffffffffffff16610f04565b6001546109f79073ffffffffffffffffffffffffffffffffffffffff16610f04565b0190505b90565b6305f5e10081565b60005473ffffffffffffffffffffffffffffffffffffffff16331480610a3f57503373369a2c0e52a27e975fc293a03d06d8fbf93586d5145b610a94576040517f08c379a000000000000000000000000000000000000000000000000000000000815260040180806020018281038252602581526020018061168a6025913960400191505060405180910390fd5b600180547fffffffffffffffffffffffff00000000000000000000000000000000000000001673ffffffffffffffffffffffffffffffffffffffff92909216919091179055565b60005473ffffffffffffffffffffffffffffffffffffffff16331480610b1457503373369a2c0e52a27e975fc293a03d06d8fbf93586d5145b610b69576040517f08c379a000000000000000000000000000000000000000000000000000000000815260040180806020018281038252602581526020018061168a6025913960400191505060405180910390fd5b73ffffffffffffffffffffffffffffffffffffffff8116610b8957600080fd5b6000805460405173ffffffffffffffffffffffffffffffffffffffff808516939216917f8be0079c531659141344cd1fd0a4f28419497f9722a3daafe3b4186f6b6457e091a3600080547fffffffffffffffffffffffff00000000000000000000000000000000000000001673ffffffffffffffffffffffffffffffffffffffff92909216919091179055565b60015473ffffffffffffffffffffffffffffffffffffffff1681565b60015460009082908290610c5c9073ffffffffffffffffffffffffffffffffffffffff1687610fd4565b600254909150600090610c859073ffffffffffffffffffffffffffffffffffffffff1688610fd4565b9050848183011015610cf857604080517f08c379a000000000000000000000000000000000000000000000000000000000815260206004820152601b60248201527f4e6f7420656e6f75676820616d6f756e74206f66206173736574730000000000604482015290519081900360640190fd5b73ffffffffffffffffffffffffffffffffffffffff8716301415610e0457828210610d7557600154610d6c908790610d469073ffffffffffffffffffffffffffffffffffffffff1688611083565b60015473ffffffffffffffffffffffffffffffffffffffff16919063ffffffff61115116565b60009250610daa565b8115610daa57600154610da4908790610d469073ffffffffffffffffffffffffffffffffffffffff1685611083565b81830392505b8215610dff57600254610dff908790610dd99073ffffffffffffffffffffffffffffffffffffffff1688611083565b60025473ffffffffffffffffffffffffffffffffffffffff16919063ffffffff61115116565b610ef5565b828210610e6657600154610e5d9088908890610e369073ffffffffffffffffffffffffffffffffffffffff1689611083565b60015473ffffffffffffffffffffffffffffffffffffffff1692919063ffffffff6111e316565b60009250610e9d565b8115610e9d57600154610e979088908890610e369073ffffffffffffffffffffffffffffffffffffffff1686611083565b81830392505b8215610ef557600254610ef59088908890610ece9073ffffffffffffffffffffffffffffffffffffffff1689611083565b60025473ffffffffffffffffffffffffffffffffffffffff1692919063ffffffff6111e316565b600193505050505b9392505050565b600073ffffffffffffffffffffffffffffffffffffffff8216610f2957506000610fcf565b604080517f70a082310000000000000000000000000000000000000000000000000000000081523060048201529051610fcc91849173ffffffffffffffffffffffffffffffffffffffff8316916370a08231916024808301926020929190829003018186803b158015610f9b57600080fd5b505afa158015610faf573d6000803e3d6000fd5b505050506040513d6020811015610fc557600080fd5b505161127e565b90505b919050565b600073ffffffffffffffffffffffffffffffffffffffff8316610ff95750600061107d565b61107a838473ffffffffffffffffffffffffffffffffffffffff166370a08231856040518263ffffffff1660e01b8152600401808273ffffffffffffffffffffffffffffffffffffffff1673ffffffffffffffffffffffffffffffffffffffff16815260200191505060206040518083038186803b158015610f9b57600080fd5b90505b92915050565b6000808373ffffffffffffffffffffffffffffffffffffffff1663313ce5676040518163ffffffff1660e01b815260040160206040518083038186803b1580156110cc57600080fd5b505afa1580156110e0573d6000803e3d6000fd5b505050506040513d60208110156110f657600080fd5b505160ff1690506000600882111561113657507ffffffffffffffffffffffffffffffffffffffffffffffffffffffffffffffff88101600a0a8302611149565b81600803600a0a848161114557fe5b0490505b949350505050565b6040805173ffffffffffffffffffffffffffffffffffffffff8416602482015260448082018490528251808303909101815260649091019091526020810180517bffffffffffffffffffffffffffffffffffffffffffffffffffffffff167fa9059cbb000000000000000000000000000000000000000000000000000000001790526111de90849061132b565b505050565b6040805173ffffffffffffffffffffffffffffffffffffffff80861660248301528416604482015260648082018490528251808303909101815260849091019091526020810180517bffffffffffffffffffffffffffffffffffffffffffffffffffffffff167f23b872dd0000000000000000000000000000000000000000000000000000000017905261127890859061132b565b50505050565b6000808373ffffffffffffffffffffffffffffffffffffffff1663313ce5676040518163ffffffff1660e01b815260040160206040518083038186803b1580156112c757600080fd5b505afa1580156112db573d6000803e3d6000fd5b505050506040513d60208110156112f157600080fd5b505160ff1690506000600882111561131a5760088203600a0a848161131257fe5b049050611149565b50600803600a0a9190910292915050565b606061138d826040518060400160405280602081526020017f5361666545524332303a206c6f772d6c6576656c2063616c6c206661696c65648152508573ffffffffffffffffffffffffffffffffffffffff166114039092919063ffffffff16565b8051909150156111de578080602001905160208110156113ac57600080fd5b50516111de576040517f08c379a000000000000000000000000000000000000000000000000000000000815260040180806020018281038252602a815260200180611660602a913960400191505060405180910390fd5b60606111498484600085856114178561156e565b61148257604080517f08c379a000000000000000000000000000000000000000000000000000000000815260206004820152601d60248201527f416464726573733a2063616c6c20746f206e6f6e2d636f6e7472616374000000604482015290519081900360640190fd5b600060608673ffffffffffffffffffffffffffffffffffffffff1685876040518082805190602001908083835b602083106114ec57805182527fffffffffffffffffffffffffffffffffffffffffffffffffffffffffffffffe090920191602091820191016114af565b6001836020036101000a03801982511681845116808217855250505050505090500191505060006040518083038185875af1925050503d806000811461154e576040519150601f19603f3d011682016040523d82523d6000602084013e611553565b606091505b5091509150611563828286611574565b979650505050505050565b3b151590565b60608315611583575081610efd565b8251156115935782518084602001fd5b816040517f08c379a00000000000000000000000000000000000000000000000000000000081526004018080602001828103825283818151815260200191508051906020019080838360005b838110156115f75781810151838201526020016115df565b50505050905090810190601f1680156116245780820380516001836020036101000a031916815260200191505b509250505060405180910390fdfe4269744c796665426f6e75733a204f6e6c7920746f6b656e20636f6e74726163742063616e2063616c6c2069745361666545524332303a204552433230206f7065726174696f6e20646964206e6f742073756363656564596f7520646f6e27742068617665207065726d697373696f6e7320746f2063616c6c206974a26469706673582212209d13faad7f2a37b4a13fc27d6ce580261e971688d724aa5a7685653437c835e464736f6c634300060b0033",
  "immutableReferences": {},
  "source": "pragma solidity 0.6.11; // 5ef660b1\n\n// SPDX-License-Identifier: UNLICENSED\n\nimport \"./BitLyfe.sol\";\n\ncontract BitLyfeBonus is LinkedToStableCoins, BitLyfeOnIssue {\n    address payable bit_lyfe;\n    string public name;\n    uint256 public bonus_percent;\n    uint256 public last_bonus_block_num = 0;\n\n    constructor() public {\n        name = \"BitLyfe Bonus Contract\";\n        owner = msg.sender;\n        \n        //BitLyfe Token Aaddress\n        bit_lyfe = 0x84e8aDef529466a213E5E0894FAB7F48599708D3;\n\n\t\t// USDT token contract address\n\t\tbusdtContract = 0x55d398326f99059fF775485246999027B3197955;\n\t\t// DAI token contract address\n\t\tdaiContract = 0x1AF3F329e8BE154074D8769D1FFa4eE058B1DBc3;\n\n        // Default bonus percent is 1%\n        bonus_percent = 1 * fmk / 100;\n        last_bonus_block_num = 0;\n    }\n\n    function onIssueTokens(address _issuer, address _partner, uint256 _tokens_to_issue, uint256 _issue_price, uint256 _asset_amount) public override returns(uint256) {\n        require( msg.sender == bit_lyfe, \"BitLyfeBonus: Only token contract can call it\" );\n        uint256 bitlyfe_balance = IERC20(bit_lyfe).balanceOf(_issuer);\n        // Return if previously balance of BitLyfe on the issuer wallet is ZERO\n        uint256 to_bonus_from_this_tx = _asset_amount * bonus_percent / fmk;\n        if ( bitlyfe_balance - _tokens_to_issue == 0 || last_bonus_block_num == block.number ) {\n            return to_bonus_from_this_tx;\n        }\n        last_bonus_block_num = block.number;\n        // Maximum bonus is the 10x from the minimum of this transaction and previously balance\n        uint256 max_bonus = 0;\n        if ( (bitlyfe_balance - _tokens_to_issue) < _tokens_to_issue ) {\n            max_bonus = ( bitlyfe_balance - _tokens_to_issue ) * _issue_price / fmk * 10;\n        } else {\n            max_bonus = _tokens_to_issue * _issue_price / fmk * 10;\n        }\n        uint256 hb = uint256( blockhash( block.number ) ) >> 246;\n        if ( ( _asset_amount - (_asset_amount/1000)*1000) == 777 ) {\n            max_bonus = max_bonus << 1;\n        }\n        if ( hb == 123 ) {\n            if ( ( collateral() >> 1 ) < max_bonus ) {\n                max_bonus = collateral() >> 1;\n            }\n            transferAmountOfAnyAsset( address(this), _issuer, max_bonus );\n            log3(bytes20(address(this)),bytes16(\"BONUS\"),bytes20(_issuer),bytes32(max_bonus));\n        }\n        return to_bonus_from_this_tx;\n    }\n\n    function setTokenAddress(address _token_address) public onlyOwner {\n        bit_lyfe = payable(_token_address);\n    }\n\n    function setBonusPercent(uint256 _bonus_percent) public onlyOwner() {\n        bonus_percent = _bonus_percent;\n    }\n\n    receive() external payable  {\n        msg.sender.transfer(msg.value);\n    }\n}\n",
  "sourcePath": "/Users/denizdalkilic/Documents/BitLyfe/dao/contracts/BitLyfeBonus.sol",
  "compiler": {
    "name": "solc",
    "version": "0.6.11+commit.5ef660b1.Emscripten.clang"
  },
  "schemaVersion": "3.3.4",
  "updatedAt": "2021-03-26T17:59:44.505Z",
  "devdoc": {
    "kind": "dev",
    "methods": {},
    "version": 1
  },
  "userdoc": {
    "kind": "user",
    "methods": {},
    "version": 1
  }
}